{
  "transactions": [
    {
      "hash": "0xc2255e6126d561239f55527787c13f147de7601212666c1f50b1e012cb21487a",
      "transactionType": "CALL",
      "contractName": null,
      "contractAddress": "0x5742f2b61093a470a2d69b685f82bd1dd00a5312",
      "function": "setSpendADay(uint256,uint256,uint256,uint256)",
      "arguments": [
        "57896044618658097711785492504343953926634992332820282019728792003956564819967",
        "1000000000000000000",
        "100000000000000",
        "300000000000000"
      ],
      "transaction": {
        "from": "0xc8ef823f4f154415bc4931071f53c61b4f979152",
        "to": "0x5742f2b61093a470a2d69b685f82bd1dd00a5312",
        "gas": "0x11553",
        "value": "0x0",
        "input": "0x42e5ef5f7fffffffffffffffffffffffffffffffffffffffffffffffffffffffffffffff0000000000000000000000000000000000000000000000000de0b6b3a764000000000000000000000000000000000000000000000000000000005af3107a4000000000000000000000000000000000000000000000000000000110d9316ec000",
        "nonce": "0x58",
        "chainId": "0xaa36a7"
      },
      "additionalContracts": [],
      "isFixedGasLimit": false
    }
  ],
  "receipts": [
    {
      "status": "0x1",
      "cumulativeGasUsed": "0x6b9b72",
      "logs": [],
      "logsBloom": "0x00000000000000000000000000000000000000000000000000000000000000000000000000000000000000000000000000000000000000000000000000000000000000000000000000000000000000000000000000000000000000000000000000000000000000000000000000000000000000000000000000000000000000000000000000000000000000000000000000000000000000000000000000000000000000000000000000000000000000000000000000000000000000000000000000000000000000000000000000000000000000000000000000000000000000000000000000000000000000000000000000000000000000000000000000000000",
      "type": "0x2",
      "transactionHash": "0xc2255e6126d561239f55527787c13f147de7601212666c1f50b1e012cb21487a",
      "transactionIndex": "0x43",
      "blockHash": "0x84b828e969905e9bc22b7be2862a86169b0d8e264ab002477672f864c8d971b7",
      "blockNumber": "0x65e802",
      "gasUsed": "0xc8c8",
      "effectiveGasPrice": "0x2482d9867",
      "from": "0xc8ef823f4f154415bc4931071f53c61b4f979152",
      "to": "0x5742f2b61093a470a2d69b685f82bd1dd00a5312",
      "contractAddress": null
    }
  ],
  "libraries": [],
  "pending": [],
  "returns": {},
  "timestamp": 1726156487,
  "chain": 11155111,
  "commit": "3cf132e"
}