{
  "transactions": [
    {
      "hash": "0x73e94f97af6b8f612b9292b4056608fe0a5f658cf2da0574dff2bb412404b737",
      "transactionType": "CALL",
      "contractName": null,
      "contractAddress": "0x6bdcee5603322aaa1cdbef5bb361c63373c0b1a2",
      "function": "setSpendADay(uint256,uint256,uint256,uint256)",
      "arguments": [
        "5789604461865809771178549250434395392663499233282028201972879200395656481996",
        "1000000000000000000",
        "2770000000000000",
        "3500000000000000"
      ],
      "transaction": {
        "from": "0xc8ef823f4f154415bc4931071f53c61b4f979152",
        "to": "0x6bdcee5603322aaa1cdbef5bb361c63373c0b1a2",
        "gas": "0x2bc97",
        "value": "0x0",
        "input": "0x42e5ef5f0ccccccccccccccccccccccccccccccccccccccccccccccccccccccccccccccc0000000000000000000000000000000000000000000000000de0b6b3a76400000000000000000000000000000000000000000000000000000009d74ce2072000000000000000000000000000000000000000000000000000000c6f3b40b6c000",
        "nonce": "0x67",
        "chainId": "0xaa36a7"
      },
      "additionalContracts": [],
      "isFixedGasLimit": false
    }
  ],
  "receipts": [
    {
      "status": "0x1",
      "cumulativeGasUsed": "0x9c8123",
      "logs": [],
      "logsBloom": "0x00000000000000000000000000000000000000000000000000000000000000000000000000000000000000000000000000000000000000000000000000000000000000000000000000000000000000000000000000000000000000000000000000000000000000000000000000000000000000000000000000000000000000000000000000000000000000000000000000000000000000000000000000000000000000000000000000000000000000000000000000000000000000000000000000000000000000000000000000000000000000000000000000000000000000000000000000000000000000000000000000000000000000000000000000000000",
      "type": "0x2",
      "transactionHash": "0x73e94f97af6b8f612b9292b4056608fe0a5f658cf2da0574dff2bb412404b737",
      "transactionIndex": "0x10",
      "blockHash": "0xfefbd7a53552217476e7da26f2ae14d022d53f9e60e3e9c0dabd68a95bb460cf",
      "blockNumber": "0x67f838",
      "gasUsed": "0x1df0a",
      "effectiveGasPrice": "0x8862bdedab",
      "from": "0xc8ef823f4f154415bc4931071f53c61b4f979152",
      "to": "0x6bdcee5603322aaa1cdbef5bb361c63373c0b1a2",
      "contractAddress": null
    }
  ],
  "libraries": [],
  "pending": [],
  "returns": {},
  "timestamp": 1728051840,
  "chain": 11155111,
  "commit": "17d8820"
}