{
  "transactions": [
    {
      "hash": "0x0fb32f2fa0ae4c82aa2d0a84793077792d81a0da2ce933ec0e42f3d64b084cf7",
      "transactionType": "CALL",
      "contractName": null,
      "contractAddress": "0xe215904227dc8322a126ddaa4d61a02ff7a0bec2",
      "function": "setSpendADay(uint256,uint256,uint256,uint256)",
      "arguments": [
        "11579208923731619542357098500868790785326998466564056403945758400791312963993",
        "1000000000000000000",
        "100000000000000",
        "300000000000000"
      ],
      "transaction": {
        "from": "0xc8ef823f4f154415bc4931071f53c61b4f979152",
        "to": "0xe215904227dc8322a126ddaa4d61a02ff7a0bec2",
        "gas": "0x2957c",
        "value": "0x0",
        "input": "0x42e5ef5f19999999999999999999999999999999999999999999999999999999999999990000000000000000000000000000000000000000000000000de0b6b3a764000000000000000000000000000000000000000000000000000000005af3107a4000000000000000000000000000000000000000000000000000000110d9316ec000",
        "nonce": "0x3b",
        "chainId": "0xaa36a7"
      },
      "additionalContracts": [],
      "isFixedGasLimit": false
    }
  ],
  "receipts": [
    {
      "status": "0x1",
      "cumulativeGasUsed": "0x1b81544",
      "logs": [],
      "logsBloom": "0x00000000000000000000000000000000000000000000000000000000000000000000000000000000000000000000000000000000000000000000000000000000000000000000000000000000000000000000000000000000000000000000000000000000000000000000000000000000000000000000000000000000000000000000000000000000000000000000000000000000000000000000000000000000000000000000000000000000000000000000000000000000000000000000000000000000000000000000000000000000000000000000000000000000000000000000000000000000000000000000000000000000000000000000000000000000",
      "type": "0x2",
      "transactionHash": "0x0fb32f2fa0ae4c82aa2d0a84793077792d81a0da2ce933ec0e42f3d64b084cf7",
      "transactionIndex": "0x181",
      "blockHash": "0xed925763b6604ea329c94da4781d49fdf52e95ec95d624e3b2259ddbc27b9775",
      "blockNumber": "0x65cf35",
      "gasUsed": "0x1dee8",
      "effectiveGasPrice": "0x15dcd40f6",
      "blobGasUsed": "0x0",
      "from": "0xc8ef823f4f154415bc4931071f53c61b4f979152",
      "to": "0xe215904227dc8322a126ddaa4d61a02ff7a0bec2",
      "contractAddress": null
    }
  ],
  "libraries": [],
  "pending": [],
  "returns": {},
  "timestamp": 1726058356,
  "chain": 11155111,
  "commit": "3cf132e"
}