{
  "transactions": [
    {
      "hash": "0xbf65e5df81e5560a648de85a27303b55e60fa77fe23b1892f8dc67b838f1a279",
      "transactionType": "CALL",
      "contractName": null,
      "contractAddress": "0xe215904227dc8322a126ddaa4d61a02ff7a0bec2",
      "function": "setSpendADay(uint256,uint256,uint256,uint256)",
      "arguments": [
        "11579208923731619542357098500868790785326998466564056403945758400791312963993",
        "1000000000000000000",
        "100000000000000",
        "300000000000000"
      ],
      "transaction": {
        "from": "0xc8ef823f4f154415bc4931071f53c61b4f979152",
        "to": "0xe215904227dc8322a126ddaa4d61a02ff7a0bec2",
        "gas": "0xe801",
        "value": "0x0",
        "input": "0x42e5ef5f19999999999999999999999999999999999999999999999999999999999999990000000000000000000000000000000000000000000000000de0b6b3a764000000000000000000000000000000000000000000000000000000005af3107a4000000000000000000000000000000000000000000000000000000110d9316ec000",
        "nonce": "0x40",
        "chainId": "0xaa36a7"
      },
      "additionalContracts": [],
      "isFixedGasLimit": false
    }
  ],
  "receipts": [
    {
      "status": "0x1",
      "cumulativeGasUsed": "0x6c0e27",
      "logs": [],
      "logsBloom": "0x00000000000000000000000000000000000000000000000000000000000000000000000000000000000000000000000000000000000000000000000000000000000000000000000000000000000000000000000000000000000000000000000000000000000000000000000000000000000000000000000000000000000000000000000000000000000000000000000000000000000000000000000000000000000000000000000000000000000000000000000000000000000000000000000000000000000000000000000000000000000000000000000000000000000000000000000000000000000000000000000000000000000000000000000000000000",
      "type": "0x2",
      "transactionHash": "0xbf65e5df81e5560a648de85a27303b55e60fa77fe23b1892f8dc67b838f1a279",
      "transactionIndex": "0x53",
      "blockHash": "0x19ba96e1be2c41fc6bc7d9d3bf0f82c7bc12aec43233c1da003e54966129c06f",
      "blockNumber": "0x65d079",
      "gasUsed": "0xa7f8",
      "effectiveGasPrice": "0x55fc2f840",
      "blobGasUsed": "0x0",
      "from": "0xc8ef823f4f154415bc4931071f53c61b4f979152",
      "to": "0xe215904227dc8322a126ddaa4d61a02ff7a0bec2",
      "contractAddress": null
    }
  ],
  "libraries": [],
  "pending": [],
  "returns": {},
  "timestamp": 1726063216,
  "chain": 11155111,
  "commit": "3cf132e"
}