{
  "transactions": [
    {
      "hash": "0x91ef173c95c3f13881c173028f6f7f62be187e9cfdaaff8bbc4b3d728618a4ad",
      "transactionType": "CALL",
      "contractName": null,
      "contractAddress": "0x5742f2b61093a470a2d69b685f82bd1dd00a5312",
      "function": "setSpendADay(uint256,uint256,uint256,uint256)",
      "arguments": [
        "11579208923731619542357098500868790785326998466564056403945758400791312963993",
        "1000000000000000000",
        "2000000000000000",
        "3000000000000000"
      ],
      "transaction": {
        "from": "0xc8ef823f4f154415bc4931071f53c61b4f979152",
        "to": "0x5742f2b61093a470a2d69b685f82bd1dd00a5312",
        "gas": "0x2957c",
        "value": "0x0",
        "input": "0x42e5ef5f19999999999999999999999999999999999999999999999999999999999999990000000000000000000000000000000000000000000000000de0b6b3a764000000000000000000000000000000000000000000000000000000071afd498d0000000000000000000000000000000000000000000000000000000aa87bee538000",
        "nonce": "0x57",
        "chainId": "0xaa36a7"
      },
      "additionalContracts": [],
      "isFixedGasLimit": false
    }
  ],
  "receipts": [
    {
      "status": "0x1",
      "cumulativeGasUsed": "0xf23a80",
      "logs": [],
      "logsBloom": "0x00000000000000000000000000000000000000000000000000000000000000000000000000000000000000000000000000000000000000000000000000000000000000000000000000000000000000000000000000000000000000000000000000000000000000000000000000000000000000000000000000000000000000000000000000000000000000000000000000000000000000000000000000000000000000000000000000000000000000000000000000000000000000000000000000000000000000000000000000000000000000000000000000000000000000000000000000000000000000000000000000000000000000000000000000000000",
      "type": "0x2",
      "transactionHash": "0x91ef173c95c3f13881c173028f6f7f62be187e9cfdaaff8bbc4b3d728618a4ad",
      "transactionIndex": "0x83",
      "blockHash": "0x1b6c940576e748dd2343580a2b8e11bd7d43ca5fc6e03ee2da986a8741a0aa8f",
      "blockNumber": "0x65e7e1",
      "gasUsed": "0x1dee8",
      "effectiveGasPrice": "0x4408bdb1e",
      "from": "0xc8ef823f4f154415bc4931071f53c61b4f979152",
      "to": "0x5742f2b61093a470a2d69b685f82bd1dd00a5312",
      "contractAddress": null
    }
  ],
  "libraries": [],
  "pending": [],
  "returns": {},
  "timestamp": 1726156048,
  "chain": 11155111,
  "commit": "3cf132e"
}