{
  "transactions": [
    {
      "hash": "0xa49edef9697497c79cd2e99f787245b0eb178e6138780d468dd18a775e6f7eaa",
      "transactionType": "CALL",
      "contractName": null,
      "contractAddress": "0xcf29c6efec05aff33732015610ed435da70600fa",
      "function": "setSpendADay(uint256,uint256,uint256,uint256)",
      "arguments": [
        "57896044618658097711785492504343953926634992332820282019728792003956564819967",
        "1000000000000000000",
        "100000000000000",
        "300000000000000"
      ],
      "transaction": {
        "from": "0xc8ef823f4f154415bc4931071f53c61b4f979152",
        "to": "0xcf29c6efec05aff33732015610ed435da70600fa",
        "gas": "0x2957c",
        "value": "0x0",
        "input": "0x42e5ef5f7fffffffffffffffffffffffffffffffffffffffffffffffffffffffffffffff0000000000000000000000000000000000000000000000000de0b6b3a764000000000000000000000000000000000000000000000000000000005af3107a4000000000000000000000000000000000000000000000000000000110d9316ec000",
        "nonce": "0x51",
        "chainId": "0xaa36a7"
      },
      "additionalContracts": [],
      "isFixedGasLimit": false
    }
  ],
  "receipts": [
    {
      "status": "0x1",
      "cumulativeGasUsed": "0x7816b7",
      "logs": [],
      "logsBloom": "0x00000000000000000000000000000000000000000000000000000000000000000000000000000000000000000000000000000000000000000000000000000000000000000000000000000000000000000000000000000000000000000000000000000000000000000000000000000000000000000000000000000000000000000000000000000000000000000000000000000000000000000000000000000000000000000000000000000000000000000000000000000000000000000000000000000000000000000000000000000000000000000000000000000000000000000000000000000000000000000000000000000000000000000000000000000000",
      "type": "0x2",
      "transactionHash": "0xa49edef9697497c79cd2e99f787245b0eb178e6138780d468dd18a775e6f7eaa",
      "transactionIndex": "0x4b",
      "blockHash": "0x9c4b9b31f42f38057efc35ab8ed2dfc5a496ed43fbad5017e7047601c3ca4545",
      "blockNumber": "0x65e6f4",
      "gasUsed": "0x1dee8",
      "effectiveGasPrice": "0x55a2a9e45",
      "from": "0xc8ef823f4f154415bc4931071f53c61b4f979152",
      "to": "0xcf29c6efec05aff33732015610ed435da70600fa",
      "contractAddress": null
    }
  ],
  "libraries": [],
  "pending": [],
  "returns": {},
  "timestamp": 1726152494,
  "chain": 11155111,
  "commit": "3cf132e"
}