{
  "transactions": [
    {
      "hash": "0x9e2f043665bfb78c1f510f76de3a69e2074452101077aae8e181e2d9c0b20011",
      "transactionType": "CALL",
      "contractName": null,
      "contractAddress": "0xe215904227dc8322a126ddaa4d61a02ff7a0bec2",
      "function": "setSpendADay(uint256,uint256,uint256,uint256)",
      "arguments": [
        "57896044618658097711785492504343953926634992332820282019728792003956564819967",
        "1000000000000000000",
        "100000000000000",
        "300000000000000"
      ],
      "transaction": {
        "from": "0xc8ef823f4f154415bc4931071f53c61b4f979152",
        "to": "0xe215904227dc8322a126ddaa4d61a02ff7a0bec2",
        "gas": "0xf71c",
        "value": "0x0",
        "input": "0x42e5ef5f7fffffffffffffffffffffffffffffffffffffffffffffffffffffffffffffff0000000000000000000000000000000000000000000000000de0b6b3a764000000000000000000000000000000000000000000000000000000005af3107a4000000000000000000000000000000000000000000000000000000110d9316ec000",
        "nonce": "0x41",
        "chainId": "0xaa36a7"
      },
      "additionalContracts": [],
      "isFixedGasLimit": false
    }
  ],
  "receipts": [
    {
      "status": "0x1",
      "cumulativeGasUsed": "0x1b2a4eb",
      "logs": [],
      "logsBloom": "0x00000000000000000000000000000000000000000000000000000000000000000000000000000000000000000000000000000000000000000000000000000000000000000000000000000000000000000000000000000000000000000000000000000000000000000000000000000000000000000000000000000000000000000000000000000000000000000000000000000000000000000000000000000000000000000000000000000000000000000000000000000000000000000000000000000000000000000000000000000000000000000000000000000000000000000000000000000000000000000000000000000000000000000000000000000000",
      "type": "0x2",
      "transactionHash": "0x9e2f043665bfb78c1f510f76de3a69e2074452101077aae8e181e2d9c0b20011",
      "transactionIndex": "0xbe",
      "blockHash": "0xd16319b2ffeeb3fe07a11267847e25150893e785a96ce966ccf35837e57bfa63",
      "blockNumber": "0x65d07d",
      "gasUsed": "0xb2e8",
      "effectiveGasPrice": "0x49043ec67",
      "blobGasUsed": "0x0",
      "from": "0xc8ef823f4f154415bc4931071f53c61b4f979152",
      "to": "0xe215904227dc8322a126ddaa4d61a02ff7a0bec2",
      "contractAddress": null
    }
  ],
  "libraries": [],
  "pending": [],
  "returns": {},
  "timestamp": 1726063268,
  "chain": 11155111,
  "commit": "3cf132e"
}