{
  "transactions": [
    {
      "hash": "0xa53583fa59d48744c26e28c3d3ac1a578fd9ca5519cfdb22a0fefc1711392114",
      "transactionType": "CALL",
      "contractName": null,
      "contractAddress": "0x5ca9d3a74d86ab09ad58af9493306ec02e529478",
      "function": "deployModule(address,bytes,uint256)",
      "arguments": [
        "0x50e3Fb737a0AdbB75Fc93f6571aD3bEE07266404",
        "0xa4f9edbf000000000000000000000000000000000000000000000000000000000000002000000000000000000000000000000000000000000000000000000000000000400000000000000000000000004b3247099847f6a30e763db903a9c6e63189fcde000000000000000000000000139e1e1d8060016e484cf81e0fc6c481c05ad2a1",
        "1727282721"
      ],
      "transaction": {
        "from": "0xd6fcd2f85fe975bb9b0f3c1b1c6802bb09d33e43",
        "to": "0x5ca9d3a74d86ab09ad58af9493306ec02e529478",
        "gas": "0x41b5e",
        "value": "0x0",
        "input": "0xf1ab873c00000000000000000000000050e3fb737a0adbb75fc93f6571ad3bee0726640400000000000000000000000000000000000000000000000000000000000000600000000000000000000000000000000000000000000000000000000066f43e210000000000000000000000000000000000000000000000000000000000000084a4f9edbf000000000000000000000000000000000000000000000000000000000000002000000000000000000000000000000000000000000000000000000000000000400000000000000000000000004b3247099847f6a30e763db903a9c6e63189fcde000000000000000000000000139e1e1d8060016e484cf81e0fc6c481c05ad2a100000000000000000000000000000000000000000000000000000000",
        "nonce": "0x7f",
        "chainId": "0x89"
      },
      "additionalContracts": [
        {
          "transactionType": "CREATE2",
          "address": "0x563fa8f7ed72936256c2d4ea40bd47ff93854eff",
          "initCode": "0x602d8060093d393df3363d3d373d3d3d363d7350e3fb737a0adbb75fc93f6571ad3bee072664045af43d82803e903d91602b57fd5bf3"
        }
      ],
      "isFixedGasLimit": false
    }
  ],
  "receipts": [
    {
      "status": "0x1",
      "cumulativeGasUsed": "0x181d038",
      "logs": [
        {
          "address": "0x563fa8f7ed72936256c2d4ea40bd47ff93854eff",
          "topics": [
            "0x8be0079c531659141344cd1fd0a4f28419497f9722a3daafe3b4186f6b6457e0",
            "0x0000000000000000000000000000000000000000000000000000000000000000",
            "0x0000000000000000000000005ca9d3a74d86ab09ad58af9493306ec02e529478"
          ],
          "data": "0x",
          "blockHash": "0x99f53ae20a1137a59ba41ff55ba34a7cb008acd5b2b5312f10c671032e0ae656",
          "blockNumber": "0x3b6176e",
          "transactionHash": "0xa53583fa59d48744c26e28c3d3ac1a578fd9ca5519cfdb22a0fefc1711392114",
          "transactionIndex": "0x8c",
          "logIndex": "0x148",
          "removed": false
        },
        {
          "address": "0x563fa8f7ed72936256c2d4ea40bd47ff93854eff",
          "topics": [
            "0x52ae88b092de36f87fb43fe794eb1381023b9c1bce563a871154022c63dce342",
            "0x0000000000000000000000000000000000000000000000000000000000000000",
            "0x0000000000000000000000004b3247099847f6a30e763db903a9c6e63189fcde"
          ],
          "data": "0x",
          "blockHash": "0x99f53ae20a1137a59ba41ff55ba34a7cb008acd5b2b5312f10c671032e0ae656",
          "blockNumber": "0x3b6176e",
          "transactionHash": "0xa53583fa59d48744c26e28c3d3ac1a578fd9ca5519cfdb22a0fefc1711392114",
          "transactionIndex": "0x8c",
          "logIndex": "0x149",
          "removed": false
        },
        {
          "address": "0x563fa8f7ed72936256c2d4ea40bd47ff93854eff",
          "topics": [
            "0x90cc2f570a6eb594b1580ea3e41247d2d73a55281889e86bd4ec2fc29c7e62d6",
            "0x0000000000000000000000000000000000000000000000000000000000000000",
            "0x0000000000000000000000004b3247099847f6a30e763db903a9c6e63189fcde"
          ],
          "data": "0x",
          "blockHash": "0x99f53ae20a1137a59ba41ff55ba34a7cb008acd5b2b5312f10c671032e0ae656",
          "blockNumber": "0x3b6176e",
          "transactionHash": "0xa53583fa59d48744c26e28c3d3ac1a578fd9ca5519cfdb22a0fefc1711392114",
          "transactionIndex": "0x8c",
          "logIndex": "0x14a",
          "removed": false
        },
        {
          "address": "0x563fa8f7ed72936256c2d4ea40bd47ff93854eff",
          "topics": [
            "0x8be0079c531659141344cd1fd0a4f28419497f9722a3daafe3b4186f6b6457e0",
            "0x0000000000000000000000005ca9d3a74d86ab09ad58af9493306ec02e529478",
            "0x0000000000000000000000004b3247099847f6a30e763db903a9c6e63189fcde"
          ],
          "data": "0x",
          "blockHash": "0x99f53ae20a1137a59ba41ff55ba34a7cb008acd5b2b5312f10c671032e0ae656",
          "blockNumber": "0x3b6176e",
          "transactionHash": "0xa53583fa59d48744c26e28c3d3ac1a578fd9ca5519cfdb22a0fefc1711392114",
          "transactionIndex": "0x8c",
          "logIndex": "0x14b",
          "removed": false
        },
        {
          "address": "0x563fa8f7ed72936256c2d4ea40bd47ff93854eff",
          "topics": [
            "0xc7f505b2f371ae2175ee4913f4499e1f2633a7b5936321eed1cdaeb6115181d2"
          ],
          "data": "0x0000000000000000000000000000000000000000000000000000000000000001",
          "blockHash": "0x99f53ae20a1137a59ba41ff55ba34a7cb008acd5b2b5312f10c671032e0ae656",
          "blockNumber": "0x3b6176e",
          "transactionHash": "0xa53583fa59d48744c26e28c3d3ac1a578fd9ca5519cfdb22a0fefc1711392114",
          "transactionIndex": "0x8c",
          "logIndex": "0x14c",
          "removed": false
        },
        {
          "address": "0x5ca9d3a74d86ab09ad58af9493306ec02e529478",
          "topics": [
            "0x2150ada912bf189ed721c44211199e270903fc88008c2a1e1e889ef30fe67c5f",
            "0x000000000000000000000000563fa8f7ed72936256c2d4ea40bd47ff93854eff",
            "0x00000000000000000000000050e3fb737a0adbb75fc93f6571ad3bee07266404"
          ],
          "data": "0x",
          "blockHash": "0x99f53ae20a1137a59ba41ff55ba34a7cb008acd5b2b5312f10c671032e0ae656",
          "blockNumber": "0x3b6176e",
          "transactionHash": "0xa53583fa59d48744c26e28c3d3ac1a578fd9ca5519cfdb22a0fefc1711392114",
          "transactionIndex": "0x8c",
          "logIndex": "0x14d",
          "removed": false
        },
        {
          "address": "0x0000000000000000000000000000000000001010",
          "topics": [
            "0x4dfe1bbbcf077ddc3e01291eea2d5c70c2b422b415d95645b9adcfd678cb1d63",
            "0x0000000000000000000000000000000000000000000000000000000000001010",
            "0x000000000000000000000000d6fcd2f85fe975bb9b0f3c1b1c6802bb09d33e43",
            "0x0000000000000000000000001efecb61a2f80aa34d3b9218b564a64d05946290"
          ],
          "data": "0x0000000000000000000000000000000000000000000000000014c4c05c913c0000000000000000000000000000000000000000000000000034a1c8194c4374b10000000000000000000000000000000000000000000008a4d7c51aa285866bb9000000000000000000000000000000000000000000000000348d0358efb238b10000000000000000000000000000000000000000000008a4d7d9df62e217a7b9",
          "blockHash": "0x99f53ae20a1137a59ba41ff55ba34a7cb008acd5b2b5312f10c671032e0ae656",
          "blockNumber": "0x3b6176e",
          "transactionHash": "0xa53583fa59d48744c26e28c3d3ac1a578fd9ca5519cfdb22a0fefc1711392114",
          "transactionIndex": "0x8c",
          "logIndex": "0x14e",
          "removed": false
        }
      ],
      "logsBloom": "0x00000000020000002000000000008000000000000000000080800000000000000000000000000000000004400000000010008040000000000000000000000000200000000000028020080000000000808001000000000000000100000000000000000000020200000000000000000800000000000000000080000000000000400080000000000000040800000000000000000000000080080000000000000000200000000000000000000000000000000000000000000000000010000000004000000100000000000001800001000020000000000a04000000100000000020002000008000080000000000001080000000002000000000400000004000100000",
      "type": "0x2",
      "transactionHash": "0xa53583fa59d48744c26e28c3d3ac1a578fd9ca5519cfdb22a0fefc1711392114",
      "transactionIndex": "0x8c",
      "blockHash": "0x99f53ae20a1137a59ba41ff55ba34a7cb008acd5b2b5312f10c671032e0ae656",
      "blockNumber": "0x3b6176e",
      "gasUsed": "0x2f92d",
      "effectiveGasPrice": "0x6fc23ac2b",
      "from": "0xd6fcd2f85fe975bb9b0f3c1b1c6802bb09d33e43",
      "to": "0x5ca9d3a74d86ab09ad58af9493306ec02e529478",
      "contractAddress": null
    }
  ],
  "libraries": [],
  "pending": [],
  "returns": {},
  "timestamp": 1727282771,
  "chain": 137,
  "commit": "62e3dab"
}