{
  "transactions": [
    {
      "hash": "0x7fb0394d9abae4af95614a857f6ce815b128f7df44aeb528d4a55c9ce68fbb41",
      "transactionType": "CALL",
      "contractName": null,
      "contractAddress": "0x5ca9d3a74d86ab09ad58af9493306ec02e529478",
      "function": "deployModule(address,bytes,uint256)",
      "arguments": [
        "0x50e3Fb737a0AdbB75Fc93f6571aD3bEE07266404",
        "0xa4f9edbf00000000000000000000000000000000000000000000000000000000000000200000000000000000000000000000000000000000000000000000000000000040000000000000000000000000acaeb670d74b4ff3c4dd1e313c0a905b61fba2a9000000000000000000000000139e1e1d8060016e484cf81e0fc6c481c05ad2a1",
        "1727281347"
      ],
      "transaction": {
        "from": "0xd6fcd2f85fe975bb9b0f3c1b1c6802bb09d33e43",
        "to": "0x5ca9d3a74d86ab09ad58af9493306ec02e529478",
        "gas": "0x41b5e",
        "value": "0x0",
        "input": "0xf1ab873c00000000000000000000000050e3fb737a0adbb75fc93f6571ad3bee0726640400000000000000000000000000000000000000000000000000000000000000600000000000000000000000000000000000000000000000000000000066f438c30000000000000000000000000000000000000000000000000000000000000084a4f9edbf00000000000000000000000000000000000000000000000000000000000000200000000000000000000000000000000000000000000000000000000000000040000000000000000000000000acaeb670d74b4ff3c4dd1e313c0a905b61fba2a9000000000000000000000000139e1e1d8060016e484cf81e0fc6c481c05ad2a100000000000000000000000000000000000000000000000000000000",
        "nonce": "0x7d",
        "chainId": "0x89"
      },
      "additionalContracts": [
        {
          "transactionType": "CREATE2",
          "address": "0x808a0f89d851613eab9a369e4c96a9e5bf314289",
          "initCode": "0x602d8060093d393df3363d3d373d3d3d363d7350e3fb737a0adbb75fc93f6571ad3bee072664045af43d82803e903d91602b57fd5bf3"
        }
      ],
      "isFixedGasLimit": false
    }
  ],
  "receipts": [
    {
      "status": "0x1",
      "cumulativeGasUsed": "0x5ad642",
      "logs": [
        {
          "address": "0x808a0f89d851613eab9a369e4c96a9e5bf314289",
          "topics": [
            "0x8be0079c531659141344cd1fd0a4f28419497f9722a3daafe3b4186f6b6457e0",
            "0x0000000000000000000000000000000000000000000000000000000000000000",
            "0x0000000000000000000000005ca9d3a74d86ab09ad58af9493306ec02e529478"
          ],
          "data": "0x",
          "blockHash": "0xe45ce872d0df864b182138c21281b1ea53959f7a58d200a6bda972959c8cb8fd",
          "blockNumber": "0x3b614ef",
          "transactionHash": "0x7fb0394d9abae4af95614a857f6ce815b128f7df44aeb528d4a55c9ce68fbb41",
          "transactionIndex": "0x2a",
          "logIndex": "0xcf",
          "removed": false
        },
        {
          "address": "0x808a0f89d851613eab9a369e4c96a9e5bf314289",
          "topics": [
            "0x52ae88b092de36f87fb43fe794eb1381023b9c1bce563a871154022c63dce342",
            "0x0000000000000000000000000000000000000000000000000000000000000000",
            "0x000000000000000000000000acaeb670d74b4ff3c4dd1e313c0a905b61fba2a9"
          ],
          "data": "0x",
          "blockHash": "0xe45ce872d0df864b182138c21281b1ea53959f7a58d200a6bda972959c8cb8fd",
          "blockNumber": "0x3b614ef",
          "transactionHash": "0x7fb0394d9abae4af95614a857f6ce815b128f7df44aeb528d4a55c9ce68fbb41",
          "transactionIndex": "0x2a",
          "logIndex": "0xd0",
          "removed": false
        },
        {
          "address": "0x808a0f89d851613eab9a369e4c96a9e5bf314289",
          "topics": [
            "0x90cc2f570a6eb594b1580ea3e41247d2d73a55281889e86bd4ec2fc29c7e62d6",
            "0x0000000000000000000000000000000000000000000000000000000000000000",
            "0x000000000000000000000000acaeb670d74b4ff3c4dd1e313c0a905b61fba2a9"
          ],
          "data": "0x",
          "blockHash": "0xe45ce872d0df864b182138c21281b1ea53959f7a58d200a6bda972959c8cb8fd",
          "blockNumber": "0x3b614ef",
          "transactionHash": "0x7fb0394d9abae4af95614a857f6ce815b128f7df44aeb528d4a55c9ce68fbb41",
          "transactionIndex": "0x2a",
          "logIndex": "0xd1",
          "removed": false
        },
        {
          "address": "0x808a0f89d851613eab9a369e4c96a9e5bf314289",
          "topics": [
            "0x8be0079c531659141344cd1fd0a4f28419497f9722a3daafe3b4186f6b6457e0",
            "0x0000000000000000000000005ca9d3a74d86ab09ad58af9493306ec02e529478",
            "0x000000000000000000000000acaeb670d74b4ff3c4dd1e313c0a905b61fba2a9"
          ],
          "data": "0x",
          "blockHash": "0xe45ce872d0df864b182138c21281b1ea53959f7a58d200a6bda972959c8cb8fd",
          "blockNumber": "0x3b614ef",
          "transactionHash": "0x7fb0394d9abae4af95614a857f6ce815b128f7df44aeb528d4a55c9ce68fbb41",
          "transactionIndex": "0x2a",
          "logIndex": "0xd2",
          "removed": false
        },
        {
          "address": "0x808a0f89d851613eab9a369e4c96a9e5bf314289",
          "topics": [
            "0xc7f505b2f371ae2175ee4913f4499e1f2633a7b5936321eed1cdaeb6115181d2"
          ],
          "data": "0x0000000000000000000000000000000000000000000000000000000000000001",
          "blockHash": "0xe45ce872d0df864b182138c21281b1ea53959f7a58d200a6bda972959c8cb8fd",
          "blockNumber": "0x3b614ef",
          "transactionHash": "0x7fb0394d9abae4af95614a857f6ce815b128f7df44aeb528d4a55c9ce68fbb41",
          "transactionIndex": "0x2a",
          "logIndex": "0xd3",
          "removed": false
        },
        {
          "address": "0x5ca9d3a74d86ab09ad58af9493306ec02e529478",
          "topics": [
            "0x2150ada912bf189ed721c44211199e270903fc88008c2a1e1e889ef30fe67c5f",
            "0x000000000000000000000000808a0f89d851613eab9a369e4c96a9e5bf314289",
            "0x00000000000000000000000050e3fb737a0adbb75fc93f6571ad3bee07266404"
          ],
          "data": "0x",
          "blockHash": "0xe45ce872d0df864b182138c21281b1ea53959f7a58d200a6bda972959c8cb8fd",
          "blockNumber": "0x3b614ef",
          "transactionHash": "0x7fb0394d9abae4af95614a857f6ce815b128f7df44aeb528d4a55c9ce68fbb41",
          "transactionIndex": "0x2a",
          "logIndex": "0xd4",
          "removed": false
        },
        {
          "address": "0x0000000000000000000000000000000000001010",
          "topics": [
            "0x4dfe1bbbcf077ddc3e01291eea2d5c70c2b422b415d95645b9adcfd678cb1d63",
            "0x0000000000000000000000000000000000000000000000000000000000001010",
            "0x000000000000000000000000d6fcd2f85fe975bb9b0f3c1b1c6802bb09d33e43",
            "0x0000000000000000000000009ead03f7136fc6b4bdb0780b00a1c14ae5a8b6d0"
          ],
          "data": "0x0000000000000000000000000000000000000000000000000014c4c05c913c0000000000000000000000000000000000000000000000000034cb519a067d6b37000000000000000000000000000000000000000000000d4cc9ecba7f0c31451400000000000000000000000000000000000000000000000034b68cd9a9ec2f37000000000000000000000000000000000000000000000d4cca017f3f68c28114",
          "blockHash": "0xe45ce872d0df864b182138c21281b1ea53959f7a58d200a6bda972959c8cb8fd",
          "blockNumber": "0x3b614ef",
          "transactionHash": "0x7fb0394d9abae4af95614a857f6ce815b128f7df44aeb528d4a55c9ce68fbb41",
          "transactionIndex": "0x2a",
          "logIndex": "0xd5",
          "removed": false
        }
      ],
      "logsBloom": "0x000000000200000020000000000000400000000000000000808000000001000000000000000000000000044000000000000080401000000000000000000000000000000000000000210800000000008000010000000000000001000000000000000000000202000000000000000008000000000000000000800000000000004000c0000400040000040800000000000000000000000080080000000000000000200000000000000000000000000000000000000000000040000010000000004000000000000000000001800001400000000000004a04000000120000000020000000008000080000000000000080000000000000000000400000000000140000",
      "type": "0x2",
      "transactionHash": "0x7fb0394d9abae4af95614a857f6ce815b128f7df44aeb528d4a55c9ce68fbb41",
      "transactionIndex": "0x2a",
      "blockHash": "0xe45ce872d0df864b182138c21281b1ea53959f7a58d200a6bda972959c8cb8fd",
      "blockNumber": "0x3b614ef",
      "gasUsed": "0x2f92d",
      "effectiveGasPrice": "0x6fc23ac32",
      "from": "0xd6fcd2f85fe975bb9b0f3c1b1c6802bb09d33e43",
      "to": "0x5ca9d3a74d86ab09ad58af9493306ec02e529478",
      "contractAddress": null
    }
  ],
  "libraries": [],
  "pending": [],
  "returns": {},
  "timestamp": 1727281377,
  "chain": 137,
  "commit": "62e3dab"
}