{
  "transactions": [
    {
      "hash": "0x2cea5386c4104e9921dbfdfce5386784492fec73ba598f5c4ec291d1eb9da1c1",
      "transactionType": "CALL",
      "contractName": null,
      "contractAddress": "0x07fa3d1bf80b27840414ecbc28c1b57120c8a797",
      "function": "convert(uint256)",
      "arguments": [
        "6838425"
      ],
      "transaction": {
        "from": "0xc8ef823f4f154415bc4931071f53c61b4f979152",
        "to": "0x07fa3d1bf80b27840414ecbc28c1b57120c8a797",
        "gas": "0x1568c",
        "value": "0x0",
        "input": "0xa3908e1b0000000000000000000000000000000000000000000000000000000000685899",
        "nonce": "0x70",
        "chainId": "0xaa36a7"
      },
      "additionalContracts": [],
      "isFixedGasLimit": false
    }
  ],
  "receipts": [
    {
      "status": "0x1",
      "cumulativeGasUsed": "0xf4b448",
      "logs": [],
      "logsBloom": "0x00000000000000000000000000000000000000000000000000000000000000000000000000000000000000000000000000000000000000000000000000000000000000000000000000000000000000000000000000000000000000000000000000000000000000000000000000000000000000000000000000000000000000000000000000000000000000000000000000000000000000000000000000000000000000000000000000000000000000000000000000000000000000000000000000000000000000000000000000000000000000000000000000000000000000000000000000000000000000000000000000000000000000000000000000000000",
      "type": "0x2",
      "transactionHash": "0x2cea5386c4104e9921dbfdfce5386784492fec73ba598f5c4ec291d1eb9da1c1",
      "transactionIndex": "0x68",
      "blockHash": "0x1c520a6aec4a0020e48b93fdc26675da27b76e6c1aa36bafc6b923953ca0bf32",
      "blockNumber": "0x6858b7",
      "gasUsed": "0xf800",
      "effectiveGasPrice": "0x27b98c76",
      "from": "0xc8ef823f4f154415bc4931071f53c61b4f979152",
      "to": "0x07fa3d1bf80b27840414ecbc28c1b57120c8a797",
      "contractAddress": null
    }
  ],
  "libraries": [],
  "pending": [],
  "returns": {},
  "timestamp": 1728394141,
  "chain": 11155111,
  "commit": "d10cfbf"
}