{
  "transactions": [
    {
      "hash": "0x6be332526fb988f45d126467ad656ee02eeaa3b618f6dcb9cda26684abdcdee9",
      "transactionType": "CALL",
      "contractName": null,
      "contractAddress": "0x07fa3d1bf80b27840414ecbc28c1b57120c8a797",
      "function": "convert(uint256)",
      "arguments": [
        "6838413"
      ],
      "transaction": {
        "from": "0xc8ef823f4f154415bc4931071f53c61b4f979152",
        "to": "0x07fa3d1bf80b27840414ecbc28c1b57120c8a797",
        "gas": "0x26b56",
        "value": "0x0",
        "input": "0xa3908e1b000000000000000000000000000000000000000000000000000000000068588d",
        "nonce": "0x6f",
        "chainId": "0xaa36a7"
      },
      "additionalContracts": [],
      "isFixedGasLimit": false
    }
  ],
  "receipts": [
    {
      "status": "0x1",
      "cumulativeGasUsed": "0x4d5211",
      "logs": [],
      "logsBloom": "0x00000000000000000000000000000000000000000000000000000000000000000000000000000000000000000000000000000000000000000000000000000000000000000000000000000000000000000000000000000000000000000000000000000000000000000000000000000000000000000000000000000000000000000000000000000000000000000000000000000000000000000000000000000000000000000000000000000000000000000000000000000000000000000000000000000000000000000000000000000000000000000000000000000000000000000000000000000000000000000000000000000000000000000000000000000000",
      "type": "0x2",
      "transactionHash": "0x6be332526fb988f45d126467ad656ee02eeaa3b618f6dcb9cda26684abdcdee9",
      "transactionIndex": "0x2a",
      "blockHash": "0x8d57777996970d715f416212ba646d27ba2c9200dff08cee9d97f49a9e741217",
      "blockNumber": "0x68589f",
      "gasUsed": "0x1c064",
      "effectiveGasPrice": "0x47760619",
      "from": "0xc8ef823f4f154415bc4931071f53c61b4f979152",
      "to": "0x07fa3d1bf80b27840414ecbc28c1b57120c8a797",
      "contractAddress": null
    }
  ],
  "libraries": [],
  "pending": [],
  "returns": {},
  "timestamp": 1728393796,
  "chain": 11155111,
  "commit": "d10cfbf"
}