{
  "transactions": [
    {
      "hash": null,
      "transactionType": "CALL",
      "contractName": null,
      "contractAddress": "0x07fa3d1bf80b27840414ecbc28c1b57120c8a797",
      "function": "convert(uint256)",
      "arguments": [
        "6838415"
      ],
      "transaction": {
        "from": "0xc8118acdf29cba90c3142437c0e84ae3902bfa74",
        "to": "0x07fa3d1bf80b27840414ecbc28c1b57120c8a797",
        "gas": "0x278d3",
        "value": "0x0",
        "input": "0xa3908e1b000000000000000000000000000000000000000000000000000000000068588f",
        "nonce": "0x1",
        "chainId": "0xaa36a7"
      },
      "additionalContracts": [],
      "isFixedGasLimit": false
    }
  ],
  "receipts": [],
  "libraries": [],
  "pending": [],
  "returns": {},
  "timestamp": 1728393588,
  "chain": 11155111,
  "commit": "d10cfbf"
}