{
  "transactions": [
    {
      "hash": "0xa2d95bec254fddce30bb3ebbef4df60992c7c48d2118f825e13a0b6df9e68089",
      "transactionType": "CALL",
      "contractName": null,
      "contractAddress": "0xc654a254eeab4c65f8a786f8c1516ea7e9824daf",
      "function": "convert(uint256)",
      "arguments": [
        "6838699"
      ],
      "transaction": {
        "from": "0xc8ef823f4f154415bc4931071f53c61b4f979152",
        "to": "0xc654a254eeab4c65f8a786f8c1516ea7e9824daf",
        "gas": "0x22e3a",
        "value": "0x0",
        "input": "0xa3908e1b00000000000000000000000000000000000000000000000000000000006859ab",
        "nonce": "0x81",
        "chainId": "0xaa36a7"
      },
      "additionalContracts": [],
      "isFixedGasLimit": false
    },
    {
      "hash": "0xd738d98e18d171887dafba07da3f87f124b3b405725f43dc579f142322f7dd7b",
      "transactionType": "CALL",
      "contractName": null,
      "contractAddress": "0xc654a254eeab4c65f8a786f8c1516ea7e9824daf",
      "function": "convert(uint256)",
      "arguments": [
        "6838727"
      ],
      "transaction": {
        "from": "0xc8ef823f4f154415bc4931071f53c61b4f979152",
        "to": "0xc654a254eeab4c65f8a786f8c1516ea7e9824daf",
        "gas": "0x16ad8",
        "value": "0x0",
        "input": "0xa3908e1b00000000000000000000000000000000000000000000000000000000006859c7",
        "nonce": "0x82",
        "chainId": "0xaa36a7"
      },
      "additionalContracts": [],
      "isFixedGasLimit": false
    },
    {
      "hash": "0x4a97a0c5b6afe9c95bdae8f01bc0c2633a3005ba558b709c8092b8e8c0ac806a",
      "transactionType": "CALL",
      "contractName": null,
      "contractAddress": "0xc654a254eeab4c65f8a786f8c1516ea7e9824daf",
      "function": "convert(uint256)",
      "arguments": [
        "6838738"
      ],
      "transaction": {
        "from": "0xc8ef823f4f154415bc4931071f53c61b4f979152",
        "to": "0xc654a254eeab4c65f8a786f8c1516ea7e9824daf",
        "gas": "0x16ad8",
        "value": "0x0",
        "input": "0xa3908e1b00000000000000000000000000000000000000000000000000000000006859d2",
        "nonce": "0x83",
        "chainId": "0xaa36a7"
      },
      "additionalContracts": [],
      "isFixedGasLimit": false
    },
    {
      "hash": "0xeb39546d759a92cf7da8feb941a3106f80fd6cf8f889656dba00d1c74cbcb06c",
      "transactionType": "CALL",
      "contractName": null,
      "contractAddress": "0xc654a254eeab4c65f8a786f8c1516ea7e9824daf",
      "function": "convert(uint256)",
      "arguments": [
        "6838767"
      ],
      "transaction": {
        "from": "0xc8ef823f4f154415bc4931071f53c61b4f979152",
        "to": "0xc654a254eeab4c65f8a786f8c1516ea7e9824daf",
        "gas": "0x16ad8",
        "value": "0x0",
        "input": "0xa3908e1b00000000000000000000000000000000000000000000000000000000006859ef",
        "nonce": "0x84",
        "chainId": "0xaa36a7"
      },
      "additionalContracts": [],
      "isFixedGasLimit": false
    },
    {
      "hash": "0xf37b25ae7375c04d2ebc4d8c320bcd5186c884cbe12e2c555345d6c3813dabcf",
      "transactionType": "CALL",
      "contractName": null,
      "contractAddress": "0xc654a254eeab4c65f8a786f8c1516ea7e9824daf",
      "function": "convert(uint256)",
      "arguments": [
        "6838771"
      ],
      "transaction": {
        "from": "0xc8ef823f4f154415bc4931071f53c61b4f979152",
        "to": "0xc654a254eeab4c65f8a786f8c1516ea7e9824daf",
        "gas": "0x16ad8",
        "value": "0x0",
        "input": "0xa3908e1b00000000000000000000000000000000000000000000000000000000006859f3",
        "nonce": "0x85",
        "chainId": "0xaa36a7"
      },
      "additionalContracts": [],
      "isFixedGasLimit": false
    },
    {
      "hash": "0x118b227f206169bdc8af9542d9d117e1951e1a1af3331b7a62ea34d9e22cae37",
      "transactionType": "CALL",
      "contractName": null,
      "contractAddress": "0xc654a254eeab4c65f8a786f8c1516ea7e9824daf",
      "function": "convert(uint256)",
      "arguments": [
        "6838792"
      ],
      "transaction": {
        "from": "0xc8ef823f4f154415bc4931071f53c61b4f979152",
        "to": "0xc654a254eeab4c65f8a786f8c1516ea7e9824daf",
        "gas": "0x16ad8",
        "value": "0x0",
        "input": "0xa3908e1b0000000000000000000000000000000000000000000000000000000000685a08",
        "nonce": "0x86",
        "chainId": "0xaa36a7"
      },
      "additionalContracts": [],
      "isFixedGasLimit": false
    }
  ],
  "receipts": [
    {
      "status": "0x1",
      "cumulativeGasUsed": "0x806374",
      "logs": [],
      "logsBloom": "0x00000000000000000000000000000000000000000000000000000000000000000000000000000000000000000000000000000000000000000000000000000000000000000000000000000000000000000000000000000000000000000000000000000000000000000000000000000000000000000000000000000000000000000000000000000000000000000000000000000000000000000000000000000000000000000000000000000000000000000000000000000000000000000000000000000000000000000000000000000000000000000000000000000000000000000000000000000000000000000000000000000000000000000000000000000000",
      "type": "0x2",
      "transactionHash": "0xa2d95bec254fddce30bb3ebbef4df60992c7c48d2118f825e13a0b6df9e68089",
      "transactionIndex": "0x33",
      "blockHash": "0x212e0d21c54218b063dc8f8c4c896723f1feae9787730982692b2530ff83d07e",
      "blockNumber": "0x685a0f",
      "gasUsed": "0x17db2",
      "effectiveGasPrice": "0xe8509ce",
      "from": "0xc8ef823f4f154415bc4931071f53c61b4f979152",
      "to": "0xc654a254eeab4c65f8a786f8c1516ea7e9824daf",
      "contractAddress": null
    },
    {
      "status": "0x1",
      "cumulativeGasUsed": "0x815b8e",
      "logs": [],
      "logsBloom": "0x00000000000000000000000000000000000000000000000000000000000000000000000000000000000000000000000000000000000000000000000000000000000000000000000000000000000000000000000000000000000000000000000000000000000000000000000000000000000000000000000000000000000000000000000000000000000000000000000000000000000000000000000000000000000000000000000000000000000000000000000000000000000000000000000000000000000000000000000000000000000000000000000000000000000000000000000000000000000000000000000000000000000000000000000000000000",
      "type": "0x2",
      "transactionHash": "0xd738d98e18d171887dafba07da3f87f124b3b405725f43dc579f142322f7dd7b",
      "transactionIndex": "0x34",
      "blockHash": "0x212e0d21c54218b063dc8f8c4c896723f1feae9787730982692b2530ff83d07e",
      "blockNumber": "0x685a0f",
      "gasUsed": "0xf81a",
      "effectiveGasPrice": "0xe8509ce",
      "from": "0xc8ef823f4f154415bc4931071f53c61b4f979152",
      "to": "0xc654a254eeab4c65f8a786f8c1516ea7e9824daf",
      "contractAddress": null
    },
    {
      "status": "0x1",
      "cumulativeGasUsed": "0x8253a8",
      "logs": [],
      "logsBloom": "0x00000000000000000000000000000000000000000000000000000000000000000000000000000000000000000000000000000000000000000000000000000000000000000000000000000000000000000000000000000000000000000000000000000000000000000000000000000000000000000000000000000000000000000000000000000000000000000000000000000000000000000000000000000000000000000000000000000000000000000000000000000000000000000000000000000000000000000000000000000000000000000000000000000000000000000000000000000000000000000000000000000000000000000000000000000000",
      "type": "0x2",
      "transactionHash": "0x4a97a0c5b6afe9c95bdae8f01bc0c2633a3005ba558b709c8092b8e8c0ac806a",
      "transactionIndex": "0x35",
      "blockHash": "0x212e0d21c54218b063dc8f8c4c896723f1feae9787730982692b2530ff83d07e",
      "blockNumber": "0x685a0f",
      "gasUsed": "0xf81a",
      "effectiveGasPrice": "0xe8509ce",
      "from": "0xc8ef823f4f154415bc4931071f53c61b4f979152",
      "to": "0xc654a254eeab4c65f8a786f8c1516ea7e9824daf",
      "contractAddress": null
    },
    {
      "status": "0x1",
      "cumulativeGasUsed": "0x834bc2",
      "logs": [],
      "logsBloom": "0x00000000000000000000000000000000000000000000000000000000000000000000000000000000000000000000000000000000000000000000000000000000000000000000000000000000000000000000000000000000000000000000000000000000000000000000000000000000000000000000000000000000000000000000000000000000000000000000000000000000000000000000000000000000000000000000000000000000000000000000000000000000000000000000000000000000000000000000000000000000000000000000000000000000000000000000000000000000000000000000000000000000000000000000000000000000",
      "type": "0x2",
      "transactionHash": "0xeb39546d759a92cf7da8feb941a3106f80fd6cf8f889656dba00d1c74cbcb06c",
      "transactionIndex": "0x36",
      "blockHash": "0x212e0d21c54218b063dc8f8c4c896723f1feae9787730982692b2530ff83d07e",
      "blockNumber": "0x685a0f",
      "gasUsed": "0xf81a",
      "effectiveGasPrice": "0xe8509ce",
      "from": "0xc8ef823f4f154415bc4931071f53c61b4f979152",
      "to": "0xc654a254eeab4c65f8a786f8c1516ea7e9824daf",
      "contractAddress": null
    },
    {
      "status": "0x1",
      "cumulativeGasUsed": "0x8443dc",
      "logs": [],
      "logsBloom": "0x00000000000000000000000000000000000000000000000000000000000000000000000000000000000000000000000000000000000000000000000000000000000000000000000000000000000000000000000000000000000000000000000000000000000000000000000000000000000000000000000000000000000000000000000000000000000000000000000000000000000000000000000000000000000000000000000000000000000000000000000000000000000000000000000000000000000000000000000000000000000000000000000000000000000000000000000000000000000000000000000000000000000000000000000000000000",
      "type": "0x2",
      "transactionHash": "0xf37b25ae7375c04d2ebc4d8c320bcd5186c884cbe12e2c555345d6c3813dabcf",
      "transactionIndex": "0x37",
      "blockHash": "0x212e0d21c54218b063dc8f8c4c896723f1feae9787730982692b2530ff83d07e",
      "blockNumber": "0x685a0f",
      "gasUsed": "0xf81a",
      "effectiveGasPrice": "0xe8509ce",
      "from": "0xc8ef823f4f154415bc4931071f53c61b4f979152",
      "to": "0xc654a254eeab4c65f8a786f8c1516ea7e9824daf",
      "contractAddress": null
    },
    {
      "status": "0x1",
      "cumulativeGasUsed": "0x853bf6",
      "logs": [],
      "logsBloom": "0x00000000000000000000000000000000000000000000000000000000000000000000000000000000000000000000000000000000000000000000000000000000000000000000000000000000000000000000000000000000000000000000000000000000000000000000000000000000000000000000000000000000000000000000000000000000000000000000000000000000000000000000000000000000000000000000000000000000000000000000000000000000000000000000000000000000000000000000000000000000000000000000000000000000000000000000000000000000000000000000000000000000000000000000000000000000",
      "type": "0x2",
      "transactionHash": "0x118b227f206169bdc8af9542d9d117e1951e1a1af3331b7a62ea34d9e22cae37",
      "transactionIndex": "0x38",
      "blockHash": "0x212e0d21c54218b063dc8f8c4c896723f1feae9787730982692b2530ff83d07e",
      "blockNumber": "0x685a0f",
      "gasUsed": "0xf81a",
      "effectiveGasPrice": "0xe8509ce",
      "from": "0xc8ef823f4f154415bc4931071f53c61b4f979152",
      "to": "0xc654a254eeab4c65f8a786f8c1516ea7e9824daf",
      "contractAddress": null
    }
  ],
  "libraries": [],
  "pending": [],
  "returns": {},
  "timestamp": 1728398957,
  "chain": 11155111,
  "commit": "d10cfbf"
}