{
  "transactions": [
    {
      "hash": "0x0aa111bd49c6abbb4d1a88fff8a342eb719ebf125f708ca6e12520cdc0f54be8",
      "transactionType": "CALL",
      "contractName": null,
      "contractAddress": "0x07fa3d1bf80b27840414ecbc28c1b57120c8a797",
      "function": "convert(uint256)",
      "arguments": [
        "6838488"
      ],
      "transaction": {
        "from": "0xc8ef823f4f154415bc4931071f53c61b4f979152",
        "to": "0x07fa3d1bf80b27840414ecbc28c1b57120c8a797",
        "gas": "0x1568c",
        "value": "0x0",
        "input": "0xa3908e1b00000000000000000000000000000000000000000000000000000000006858d8",
        "nonce": "0x78",
        "chainId": "0xaa36a7"
      },
      "additionalContracts": [],
      "isFixedGasLimit": false
    }
  ],
  "receipts": [
    {
      "status": "0x1",
      "cumulativeGasUsed": "0x8be756",
      "logs": [],
      "logsBloom": "0x00000000000000000000000000000000000000000000000000000000000000000000000000000000000000000000000000000000000000000000000000000000000000000000000000000000000000000000000000000000000000000000000000000000000000000000000000000000000000000000000000000000000000000000000000000000000000000000000000000000000000000000000000000000000000000000000000000000000000000000000000000000000000000000000000000000000000000000000000000000000000000000000000000000000000000000000000000000000000000000000000000000000000000000000000000000",
      "type": "0x2",
      "transactionHash": "0x0aa111bd49c6abbb4d1a88fff8a342eb719ebf125f708ca6e12520cdc0f54be8",
      "transactionIndex": "0x45",
      "blockHash": "0x7dd4c050ea56788e0c24650a5288788ee9524edd4dca24e88329670260632c50",
      "blockNumber": "0x6858db",
      "gasUsed": "0xf800",
      "effectiveGasPrice": "0x24498935",
      "from": "0xc8ef823f4f154415bc4931071f53c61b4f979152",
      "to": "0x07fa3d1bf80b27840414ecbc28c1b57120c8a797",
      "contractAddress": null
    }
  ],
  "libraries": [],
  "pending": [],
  "returns": {},
  "timestamp": 1728394670,
  "chain": 11155111,
  "commit": "d10cfbf"
}