{
  "transactions": [
    {
      "hash": "0xab3b7ddbbb28d73c1343bc8b7c0c8c0398b7d6e72622c3d2571154171642c746",
      "transactionType": "CALL",
      "contractName": null,
      "contractAddress": "0x07fa3d1bf80b27840414ecbc28c1b57120c8a797",
      "function": "convert(uint256)",
      "arguments": [
        "6838473"
      ],
      "transaction": {
        "from": "0xc8ef823f4f154415bc4931071f53c61b4f979152",
        "to": "0x07fa3d1bf80b27840414ecbc28c1b57120c8a797",
        "gas": "0x1b2cf",
        "value": "0x0",
        "input": "0xa3908e1b00000000000000000000000000000000000000000000000000000000006858c9",
        "nonce": "0x72",
        "chainId": "0xaa36a7"
      },
      "additionalContracts": [],
      "isFixedGasLimit": false
    }
  ],
  "receipts": [
    {
      "status": "0x1",
      "cumulativeGasUsed": "0x1b17d98",
      "logs": [],
      "logsBloom": "0x00000000000000000000000000000000000000000000000000000000000000000000000000000000000000000000000000000000000000000000000000000000000000000000000000000000000000000000000000000000000000000000000000000000000000000000000000000000000000000000000000000000000000000000000000000000000000000000000000000000000000000000000000000000000000000000000000000000000000000000000000000000000000000000000000000000000000000000000000000000000000000000000000000000000000000000000000000000000000000000000000000000000000000000000000000000",
      "type": "0x2",
      "transactionHash": "0xab3b7ddbbb28d73c1343bc8b7c0c8c0398b7d6e72622c3d2571154171642c746",
      "transactionIndex": "0x94",
      "blockHash": "0x726996522ae8fb826cc02f23c2d68091fabc0a8ce0c399854e27c6bdaa876200",
      "blockNumber": "0x6858cb",
      "gasUsed": "0x13acc",
      "effectiveGasPrice": "0x22730b5e",
      "from": "0xc8ef823f4f154415bc4931071f53c61b4f979152",
      "to": "0x07fa3d1bf80b27840414ecbc28c1b57120c8a797",
      "contractAddress": null
    }
  ],
  "libraries": [],
  "pending": [],
  "returns": {},
  "timestamp": 1728394465,
  "chain": 11155111,
  "commit": "d10cfbf"
}