{
  "transactions": [
    {
      "hash": "0x30bbcbc042b1229b8b0977968bfaa20b182523f3eee5f2f096db466038326ca1",
      "transactionType": "CALL",
      "contractName": null,
      "contractAddress": "0x07fa3d1bf80b27840414ecbc28c1b57120c8a797",
      "function": "convert(uint256)",
      "arguments": [
        "6838485"
      ],
      "transaction": {
        "from": "0xc8ef823f4f154415bc4931071f53c61b4f979152",
        "to": "0x07fa3d1bf80b27840414ecbc28c1b57120c8a797",
        "gas": "0x1568c",
        "value": "0x0",
        "input": "0xa3908e1b00000000000000000000000000000000000000000000000000000000006858d5",
        "nonce": "0x77",
        "chainId": "0xaa36a7"
      },
      "additionalContracts": [],
      "isFixedGasLimit": false
    }
  ],
  "receipts": [
    {
      "status": "0x1",
      "cumulativeGasUsed": "0xdc3efd",
      "logs": [],
      "logsBloom": "0x00000000000000000000000000000000000000000000000000000000000000000000000000000000000000000000000000000000000000000000000000000000000000000000000000000000000000000000000000000000000000000000000000000000000000000000000000000000000000000000000000000000000000000000000000000000000000000000000000000000000000000000000000000000000000000000000000000000000000000000000000000000000000000000000000000000000000000000000000000000000000000000000000000000000000000000000000000000000000000000000000000000000000000000000000000000",
      "type": "0x2",
      "transactionHash": "0x30bbcbc042b1229b8b0977968bfaa20b182523f3eee5f2f096db466038326ca1",
      "transactionIndex": "0x4c",
      "blockHash": "0xe1073d32a06b259a48ac85e3e0ec468682d4279b37fe1ededdd0c20b94e67741",
      "blockNumber": "0x6858d8",
      "gasUsed": "0xf800",
      "effectiveGasPrice": "0x2560dcaa",
      "from": "0xc8ef823f4f154415bc4931071f53c61b4f979152",
      "to": "0x07fa3d1bf80b27840414ecbc28c1b57120c8a797",
      "contractAddress": null
    }
  ],
  "libraries": [],
  "pending": [],
  "returns": {},
  "timestamp": 1728394633,
  "chain": 11155111,
  "commit": "d10cfbf"
}