{
  "transactions": [
    {
      "hash": "0x3b7043e405f8131b9c62574d0f0886e2fb5c4e94bccaa69c7328925be192fb12",
      "transactionType": "CALL",
      "contractName": null,
      "contractAddress": "0x07fa3d1bf80b27840414ecbc28c1b57120c8a797",
      "function": "convert(uint256)",
      "arguments": [
        "6838481"
      ],
      "transaction": {
        "from": "0xc8ef823f4f154415bc4931071f53c61b4f979152",
        "to": "0x07fa3d1bf80b27840414ecbc28c1b57120c8a797",
        "gas": "0x1568c",
        "value": "0x0",
        "input": "0xa3908e1b00000000000000000000000000000000000000000000000000000000006858d1",
        "nonce": "0x75",
        "chainId": "0xaa36a7"
      },
      "additionalContracts": [],
      "isFixedGasLimit": false
    }
  ],
  "receipts": [
    {
      "status": "0x1",
      "cumulativeGasUsed": "0x8dfc5c",
      "logs": [],
      "logsBloom": "0x00000000000000000000000000000000000000000000000000000000000000000000000000000000000000000000000000000000000000000000000000000000000000000000000000000000000000000000000000000000000000000000000000000000000000000000000000000000000000000000000000000000000000000000000000000000000000000000000000000000000000000000000000000000000000000000000000000000000000000000000000000000000000000000000000000000000000000000000000000000000000000000000000000000000000000000000000000000000000000000000000000000000000000000000000000000",
      "type": "0x2",
      "transactionHash": "0x3b7043e405f8131b9c62574d0f0886e2fb5c4e94bccaa69c7328925be192fb12",
      "transactionIndex": "0x46",
      "blockHash": "0x2883e4166e8e3757cc0212160ce7022821f97c3596302632e82a3fa63c404b05",
      "blockNumber": "0x6858d4",
      "gasUsed": "0xf800",
      "effectiveGasPrice": "0x257d7474",
      "from": "0xc8ef823f4f154415bc4931071f53c61b4f979152",
      "to": "0x07fa3d1bf80b27840414ecbc28c1b57120c8a797",
      "contractAddress": null
    }
  ],
  "libraries": [],
  "pending": [],
  "returns": {},
  "timestamp": 1728394584,
  "chain": 11155111,
  "commit": "d10cfbf"
}