{
  "transactions": [
    {
      "hash": "0x70d2e6efc69c709ab00a6db41c3ab4bc9dadd5fffa7529c1dfa76bc707040b5d",
      "transactionType": "CALL",
      "contractName": null,
      "contractAddress": "0x07fa3d1bf80b27840414ecbc28c1b57120c8a797",
      "function": "convert(uint256)",
      "arguments": [
        "6838491"
      ],
      "transaction": {
        "from": "0xc8ef823f4f154415bc4931071f53c61b4f979152",
        "to": "0x07fa3d1bf80b27840414ecbc28c1b57120c8a797",
        "gas": "0x1568c",
        "value": "0x0",
        "input": "0xa3908e1b00000000000000000000000000000000000000000000000000000000006858db",
        "nonce": "0x79",
        "chainId": "0xaa36a7"
      },
      "additionalContracts": [],
      "isFixedGasLimit": false
    }
  ],
  "receipts": [
    {
      "status": "0x1",
      "cumulativeGasUsed": "0x8a14fd",
      "logs": [],
      "logsBloom": "0x00000000000000000000000000000000000000000000000000000000000000000000000000000000000000000000000000000000000000000000000000000000000000000000000000000000000000000000000000000000000000000000000000000000000000000000000000000000000000000000000000000000000000000000000000000000000000000000000000000000000000000000000000000000000000000000000000000000000000000000000000000000000000000000000000000000000000000000000000000000000000000000000000000000000000000000000000000000000000000000000000000000000000000000000000000000",
      "type": "0x2",
      "transactionHash": "0x70d2e6efc69c709ab00a6db41c3ab4bc9dadd5fffa7529c1dfa76bc707040b5d",
      "transactionIndex": "0x56",
      "blockHash": "0x713b54caa5e63705dc5dc4ab7ba8a8b6a20e8462cd6ffebcf2a0024449ec3ea8",
      "blockNumber": "0x6858df",
      "gasUsed": "0xf800",
      "effectiveGasPrice": "0x1ee70da9",
      "from": "0xc8ef823f4f154415bc4931071f53c61b4f979152",
      "to": "0x07fa3d1bf80b27840414ecbc28c1b57120c8a797",
      "contractAddress": null
    }
  ],
  "libraries": [],
  "pending": [],
  "returns": {},
  "timestamp": 1728394717,
  "chain": 11155111,
  "commit": "d10cfbf"
}