{
  "transactions": [
    {
      "hash": "0x3ec9c5f698533fe91b0cf0cb7c3ee76b20372bdc3d1d5e3a52d46436464498d0",
      "transactionType": "CALL",
      "contractName": null,
      "contractAddress": "0x4e1dcf7ad4e460cfd30791ccc4f9c8a4f820ec67",
      "function": "createProxyWithNonce(address,bytes,uint256)",
      "arguments": [
        "0x41675C099F32341bf84BFc5382aF534df5C7461a",
        "0xb63e800d000000000000000000000000000000000000000000000000000000000000010000000000000000000000000000000000000000000000000000000000000000010000000000000000000000005ca9d3a74d86ab09ad58af9493306ec02e529478000000000000000000000000000000000000000000000000000000000000014000000000000000000000000000000000000000000000000000000000000000000000000000000000000000000000000000000000000000000000000000000000000000000000000000000000000000000000000000000000000000000000000000000000000000000000000000000000000000000000000000000000000000000000000000000000000000000000000000000000000000000000000000000001000000000000000000000000d6fcd2f85fe975bb9b0f3c1b1c6802bb09d33e430000000000000000000000000000000000000000000000000000000000000064ce8dabac00000000000000000000000050e3fb737a0adbb75fc93f6571ad3bee07266404000000000000000000000000139e1e1d8060016e484cf81e0fc6c481c05ad2a10000000000000000000000000000000000000000000000000000000066f437e000000000000000000000000000000000000000000000000000000000",
        "1727281120"
      ],
      "transaction": {
        "from": "0xd6fcd2f85fe975bb9b0f3c1b1c6802bb09d33e43",
        "to": "0x4e1dcf7ad4e460cfd30791ccc4f9c8a4f820ec67",
        "gas": "0x9c766",
        "value": "0x0",
        "input": "0x1688f0b900000000000000000000000041675c099f32341bf84bfc5382af534df5c7461a00000000000000000000000000000000000000000000000000000000000000600000000000000000000000000000000000000000000000000000000066f437e000000000000000000000000000000000000000000000000000000000000001e4b63e800d000000000000000000000000000000000000000000000000000000000000010000000000000000000000000000000000000000000000000000000000000000010000000000000000000000005ca9d3a74d86ab09ad58af9493306ec02e529478000000000000000000000000000000000000000000000000000000000000014000000000000000000000000000000000000000000000000000000000000000000000000000000000000000000000000000000000000000000000000000000000000000000000000000000000000000000000000000000000000000000000000000000000000000000000000000000000000000000000000000000000000000000000000000000000000000000000000000000000000000000000000000000001000000000000000000000000d6fcd2f85fe975bb9b0f3c1b1c6802bb09d33e430000000000000000000000000000000000000000000000000000000000000064ce8dabac00000000000000000000000050e3fb737a0adbb75fc93f6571ad3bee07266404000000000000000000000000139e1e1d8060016e484cf81e0fc6c481c05ad2a10000000000000000000000000000000000000000000000000000000066f437e00000000000000000000000000000000000000000000000000000000000000000000000000000000000000000000000000000000000000000",
        "nonce": "0x7b",
        "chainId": "0x89"
      },
      "additionalContracts": [
        {
          "transactionType": "CREATE2",
          "address": "0xacaeb670d74b4ff3c4dd1e313c0a905b61fba2a9",
          "initCode": "0x608060405234801561001057600080fd5b506040516101e63803806101e68339818101604052602081101561003357600080fd5b8101908080519060200190929190505050600073ffffffffffffffffffffffffffffffffffffffff168173ffffffffffffffffffffffffffffffffffffffff1614156100ca576040517f08c379a00000000000000000000000000000000000000000000000000000000081526004018080602001828103825260228152602001806101c46022913960400191505060405180910390fd5b806000806101000a81548173ffffffffffffffffffffffffffffffffffffffff021916908373ffffffffffffffffffffffffffffffffffffffff1602179055505060ab806101196000396000f3fe608060405273ffffffffffffffffffffffffffffffffffffffff600054167fa619486e0000000000000000000000000000000000000000000000000000000060003514156050578060005260206000f35b3660008037600080366000845af43d6000803e60008114156070573d6000fd5b3d6000f3fea264697066735822122003d1488ee65e08fa41e58e888a9865554c535f2c77126a82cb4c0f917f31441364736f6c63430007060033496e76616c69642073696e676c65746f6e20616464726573732070726f766964656400000000000000000000000041675c099f32341bf84bfc5382af534df5c7461a"
        },
        {
          "transactionType": "CREATE2",
          "address": "0xa458b1aa76335a8032f46642e7338ea07223c45e",
          "initCode": "0x602d8060093d393df3363d3d373d3d3d363d7350e3fb737a0adbb75fc93f6571ad3bee072664045af43d82803e903d91602b57fd5bf3"
        }
      ],
      "isFixedGasLimit": false
    },
    {
      "hash": "0x765176ce4cd68a250a84dffbda587c66eff60de61feccc91c18d64fb16aaad44",
      "transactionType": "CALL",
      "contractName": null,
      "contractAddress": "0x139e1e1d8060016e484cf81e0fc6c481c05ad2a1",
      "function": "mint(address,uint256)",
      "arguments": [
        "0xacAEB670d74B4FF3c4dd1E313c0A905B61fBA2a9",
        "100000000000000000000"
      ],
      "transaction": {
        "from": "0xd6fcd2f85fe975bb9b0f3c1b1c6802bb09d33e43",
        "to": "0x139e1e1d8060016e484cf81e0fc6c481c05ad2a1",
        "gas": "0x114f7",
        "value": "0x0",
        "input": "0x40c10f19000000000000000000000000acaeb670d74b4ff3c4dd1e313c0a905b61fba2a90000000000000000000000000000000000000000000000056bc75e2d63100000",
        "nonce": "0x7c",
        "chainId": "0x89"
      },
      "additionalContracts": [],
      "isFixedGasLimit": false
    }
  ],
  "receipts": [
    {
      "status": "0x1",
      "cumulativeGasUsed": "0xd7e221",
      "logs": [
        {
          "address": "0xa458b1aa76335a8032f46642e7338ea07223c45e",
          "topics": [
            "0x8be0079c531659141344cd1fd0a4f28419497f9722a3daafe3b4186f6b6457e0",
            "0x0000000000000000000000000000000000000000000000000000000000000000",
            "0x000000000000000000000000acaeb670d74b4ff3c4dd1e313c0a905b61fba2a9"
          ],
          "data": "0x",
          "blockHash": "0x0dc8e77ac895a8f1126331fff96e879a0b4260aba2a2c2ab4bed910cc6b29041",
          "blockNumber": "0x3b61481",
          "transactionHash": "0x3ec9c5f698533fe91b0cf0cb7c3ee76b20372bdc3d1d5e3a52d46436464498d0",
          "transactionIndex": "0x55",
          "logIndex": "0x177",
          "removed": false
        },
        {
          "address": "0xa458b1aa76335a8032f46642e7338ea07223c45e",
          "topics": [
            "0x52ae88b092de36f87fb43fe794eb1381023b9c1bce563a871154022c63dce342",
            "0x0000000000000000000000000000000000000000000000000000000000000000",
            "0x000000000000000000000000acaeb670d74b4ff3c4dd1e313c0a905b61fba2a9"
          ],
          "data": "0x",
          "blockHash": "0x0dc8e77ac895a8f1126331fff96e879a0b4260aba2a2c2ab4bed910cc6b29041",
          "blockNumber": "0x3b61481",
          "transactionHash": "0x3ec9c5f698533fe91b0cf0cb7c3ee76b20372bdc3d1d5e3a52d46436464498d0",
          "transactionIndex": "0x55",
          "logIndex": "0x178",
          "removed": false
        },
        {
          "address": "0xa458b1aa76335a8032f46642e7338ea07223c45e",
          "topics": [
            "0x90cc2f570a6eb594b1580ea3e41247d2d73a55281889e86bd4ec2fc29c7e62d6",
            "0x0000000000000000000000000000000000000000000000000000000000000000",
            "0x000000000000000000000000acaeb670d74b4ff3c4dd1e313c0a905b61fba2a9"
          ],
          "data": "0x",
          "blockHash": "0x0dc8e77ac895a8f1126331fff96e879a0b4260aba2a2c2ab4bed910cc6b29041",
          "blockNumber": "0x3b61481",
          "transactionHash": "0x3ec9c5f698533fe91b0cf0cb7c3ee76b20372bdc3d1d5e3a52d46436464498d0",
          "transactionIndex": "0x55",
          "logIndex": "0x179",
          "removed": false
        },
        {
          "address": "0xa458b1aa76335a8032f46642e7338ea07223c45e",
          "topics": [
            "0x8be0079c531659141344cd1fd0a4f28419497f9722a3daafe3b4186f6b6457e0",
            "0x000000000000000000000000acaeb670d74b4ff3c4dd1e313c0a905b61fba2a9",
            "0x000000000000000000000000acaeb670d74b4ff3c4dd1e313c0a905b61fba2a9"
          ],
          "data": "0x",
          "blockHash": "0x0dc8e77ac895a8f1126331fff96e879a0b4260aba2a2c2ab4bed910cc6b29041",
          "blockNumber": "0x3b61481",
          "transactionHash": "0x3ec9c5f698533fe91b0cf0cb7c3ee76b20372bdc3d1d5e3a52d46436464498d0",
          "transactionIndex": "0x55",
          "logIndex": "0x17a",
          "removed": false
        },
        {
          "address": "0xa458b1aa76335a8032f46642e7338ea07223c45e",
          "topics": [
            "0xc7f505b2f371ae2175ee4913f4499e1f2633a7b5936321eed1cdaeb6115181d2"
          ],
          "data": "0x0000000000000000000000000000000000000000000000000000000000000001",
          "blockHash": "0x0dc8e77ac895a8f1126331fff96e879a0b4260aba2a2c2ab4bed910cc6b29041",
          "blockNumber": "0x3b61481",
          "transactionHash": "0x3ec9c5f698533fe91b0cf0cb7c3ee76b20372bdc3d1d5e3a52d46436464498d0",
          "transactionIndex": "0x55",
          "logIndex": "0x17b",
          "removed": false
        },
        {
          "address": "0xacaeb670d74b4ff3c4dd1e313c0a905b61fba2a9",
          "topics": [
            "0x2150ada912bf189ed721c44211199e270903fc88008c2a1e1e889ef30fe67c5f",
            "0x000000000000000000000000a458b1aa76335a8032f46642e7338ea07223c45e",
            "0x00000000000000000000000050e3fb737a0adbb75fc93f6571ad3bee07266404"
          ],
          "data": "0x",
          "blockHash": "0x0dc8e77ac895a8f1126331fff96e879a0b4260aba2a2c2ab4bed910cc6b29041",
          "blockNumber": "0x3b61481",
          "transactionHash": "0x3ec9c5f698533fe91b0cf0cb7c3ee76b20372bdc3d1d5e3a52d46436464498d0",
          "transactionIndex": "0x55",
          "logIndex": "0x17c",
          "removed": false
        },
        {
          "address": "0xacaeb670d74b4ff3c4dd1e313c0a905b61fba2a9",
          "topics": [
            "0xecdf3a3effea5783a3c4c2140e677577666428d44ed9d474a0b3a4c9943f8440",
            "0x000000000000000000000000a458b1aa76335a8032f46642e7338ea07223c45e"
          ],
          "data": "0x",
          "blockHash": "0x0dc8e77ac895a8f1126331fff96e879a0b4260aba2a2c2ab4bed910cc6b29041",
          "blockNumber": "0x3b61481",
          "transactionHash": "0x3ec9c5f698533fe91b0cf0cb7c3ee76b20372bdc3d1d5e3a52d46436464498d0",
          "transactionIndex": "0x55",
          "logIndex": "0x17d",
          "removed": false
        },
        {
          "address": "0xacaeb670d74b4ff3c4dd1e313c0a905b61fba2a9",
          "topics": [
            "0x141df868a6331af528e38c83b7aa03edc19be66e37ae67f9285bf4f8e3c6a1a8",
            "0x0000000000000000000000004e1dcf7ad4e460cfd30791ccc4f9c8a4f820ec67"
          ],
          "data": "0x000000000000000000000000000000000000000000000000000000000000008000000000000000000000000000000000000000000000000000000000000000010000000000000000000000005ca9d3a74d86ab09ad58af9493306ec02e52947800000000000000000000000000000000000000000000000000000000000000000000000000000000000000000000000000000000000000000000000000000001000000000000000000000000d6fcd2f85fe975bb9b0f3c1b1c6802bb09d33e43",
          "blockHash": "0x0dc8e77ac895a8f1126331fff96e879a0b4260aba2a2c2ab4bed910cc6b29041",
          "blockNumber": "0x3b61481",
          "transactionHash": "0x3ec9c5f698533fe91b0cf0cb7c3ee76b20372bdc3d1d5e3a52d46436464498d0",
          "transactionIndex": "0x55",
          "logIndex": "0x17e",
          "removed": false
        },
        {
          "address": "0x4e1dcf7ad4e460cfd30791ccc4f9c8a4f820ec67",
          "topics": [
            "0x4f51faf6c4561ff95f067657e43439f0f856d97c04d9ec9070a6199ad418e235",
            "0x000000000000000000000000acaeb670d74b4ff3c4dd1e313c0a905b61fba2a9"
          ],
          "data": "0x00000000000000000000000041675c099f32341bf84bfc5382af534df5c7461a",
          "blockHash": "0x0dc8e77ac895a8f1126331fff96e879a0b4260aba2a2c2ab4bed910cc6b29041",
          "blockNumber": "0x3b61481",
          "transactionHash": "0x3ec9c5f698533fe91b0cf0cb7c3ee76b20372bdc3d1d5e3a52d46436464498d0",
          "transactionIndex": "0x55",
          "logIndex": "0x17f",
          "removed": false
        },
        {
          "address": "0x0000000000000000000000000000000000001010",
          "topics": [
            "0x4dfe1bbbcf077ddc3e01291eea2d5c70c2b422b415d95645b9adcfd678cb1d63",
            "0x0000000000000000000000000000000000000000000000000000000000001010",
            "0x000000000000000000000000d6fcd2f85fe975bb9b0f3c1b1c6802bb09d33e43",
            "0x0000000000000000000000001b0840519a581f3779d0a10b77593d6d3894a76a"
          ],
          "data": "0x000000000000000000000000000000000000000000000000002eb445a0f6593e00000000000000000000000000000000000000000000000034ff7e7c86934f9200000000000000000000000000000000000000000000486fc2b5c1b9f2846ddf00000000000000000000000000000000000000000000000034d0ca36e59cf65400000000000000000000000000000000000000000000486fc2e475ff937ac71d",
          "blockHash": "0x0dc8e77ac895a8f1126331fff96e879a0b4260aba2a2c2ab4bed910cc6b29041",
          "blockNumber": "0x3b61481",
          "transactionHash": "0x3ec9c5f698533fe91b0cf0cb7c3ee76b20372bdc3d1d5e3a52d46436464498d0",
          "transactionIndex": "0x55",
          "logIndex": "0x180",
          "removed": false
        }
      ],
      "logsBloom": "0x00000000020000002000000000020000800000000000000080800000000100000000000000000000000004000000000000008004000000000000000000000000000010000000000000080000000000808001000000000008004100000010000000000000022a00000500000000000800000000000100000080010000000000400880010400008200040800000000000000000000000080080000000000000000200000000000000000100000000000000000000000000000000010000000004000000000000000000001800000000000000000000804080000100000000020000000088004010000000000100080100020000000000000408000000000140000",
      "type": "0x2",
      "transactionHash": "0x3ec9c5f698533fe91b0cf0cb7c3ee76b20372bdc3d1d5e3a52d46436464498d0",
      "transactionIndex": "0x55",
      "blockHash": "0x0dc8e77ac895a8f1126331fff96e879a0b4260aba2a2c2ab4bed910cc6b29041",
      "blockNumber": "0x3b61481",
      "gasUsed": "0x6afba",
      "effectiveGasPrice": "0x6fc23ace5",
      "from": "0xd6fcd2f85fe975bb9b0f3c1b1c6802bb09d33e43",
      "to": "0x4e1dcf7ad4e460cfd30791ccc4f9c8a4f820ec67",
      "contractAddress": null
    },
    {
      "status": "0x1",
      "cumulativeGasUsed": "0xd8aaa6",
      "logs": [
        {
          "address": "0x139e1e1d8060016e484cf81e0fc6c481c05ad2a1",
          "topics": [
            "0xddf252ad1be2c89b69c2b068fc378daa952ba7f163c4a11628f55a4df523b3ef",
            "0x0000000000000000000000000000000000000000000000000000000000000000",
            "0x000000000000000000000000acaeb670d74b4ff3c4dd1e313c0a905b61fba2a9"
          ],
          "data": "0x0000000000000000000000000000000000000000000000056bc75e2d63100000",
          "blockHash": "0x0dc8e77ac895a8f1126331fff96e879a0b4260aba2a2c2ab4bed910cc6b29041",
          "blockNumber": "0x3b61481",
          "transactionHash": "0x765176ce4cd68a250a84dffbda587c66eff60de61feccc91c18d64fb16aaad44",
          "transactionIndex": "0x56",
          "logIndex": "0x181",
          "removed": false
        },
        {
          "address": "0x0000000000000000000000000000000000001010",
          "topics": [
            "0x4dfe1bbbcf077ddc3e01291eea2d5c70c2b422b415d95645b9adcfd678cb1d63",
            "0x0000000000000000000000000000000000000000000000000000000000001010",
            "0x000000000000000000000000d6fcd2f85fe975bb9b0f3c1b1c6802bb09d33e43",
            "0x0000000000000000000000001b0840519a581f3779d0a10b77593d6d3894a76a"
          ],
          "data": "0x0000000000000000000000000000000000000000000000000005789cdd6e4cd700000000000000000000000000000000000000000000000034d0ca36e419263000000000000000000000000000000000000000000000486fc2e475ff937ac71d00000000000000000000000000000000000000000000000034cb519a06aad95900000000000000000000000000000000000000000000486fc2e9ee9c70e913f4",
          "blockHash": "0x0dc8e77ac895a8f1126331fff96e879a0b4260aba2a2c2ab4bed910cc6b29041",
          "blockNumber": "0x3b61481",
          "transactionHash": "0x765176ce4cd68a250a84dffbda587c66eff60de61feccc91c18d64fb16aaad44",
          "transactionIndex": "0x56",
          "logIndex": "0x182",
          "removed": false
        }
      ],
      "logsBloom": "0x00000000000000000000000000020000000000000000000000000000000100000000000000000000000004000000000000008000000000000000000000000000000000000000000000000008000000800000000000000000000100000000000000000000020000000000000000000800000000000000000080000010000000000080000400008000000000000000000000100000000000000000000000000000200000000000000000000000000000000000000000000000000010000000004000000002000000000001000000000000000004000020000000100000000020000000000000000000000000100000000000000000000000000000000000140000",
      "type": "0x2",
      "transactionHash": "0x765176ce4cd68a250a84dffbda587c66eff60de61feccc91c18d64fb16aaad44",
      "transactionIndex": "0x56",
      "blockHash": "0x0dc8e77ac895a8f1126331fff96e879a0b4260aba2a2c2ab4bed910cc6b29041",
      "blockNumber": "0x3b61481",
      "gasUsed": "0xc885",
      "effectiveGasPrice": "0x6fc23ace5",
      "from": "0xd6fcd2f85fe975bb9b0f3c1b1c6802bb09d33e43",
      "to": "0x139e1e1d8060016e484cf81e0fc6c481c05ad2a1",
      "contractAddress": null
    }
  ],
  "libraries": [],
  "pending": [],
  "returns": {},
  "timestamp": 1727281142,
  "chain": 137,
  "commit": "62e3dab"
}